:100000000C9438000C9415010C9415010C941501F6
:100010000C9415010C9415010C9415010C94150108
:100020000C9415010C9415010C9415010C941501F8
:100030000C9415010C9415010C9415010C941501E8
:100040000C9415010C9415010C9415010C941501D8
:100050000C9415010C9415010C9415010C941501C8
:100060000C9415010C9415010100011000023800D8
:1000700011241FBECFEFD8E0DEBFCDBFE8E6F0E031
:1000800040E017C0B591A59135912591059107FDE7
:100090000CC095918591EF01F92FE82F05900D92F5
:1000A000A217B307D9F7FE0104C01D92A217B30728
:1000B000E1F7EF36F40731F70E9462000C94FA0082
:0400C000F894FFCFE2
:1000C4000E940501C12CD12C7601C0E00F2EF4EF63
:1000D4008F2E99249394A12CB12CF02D19E2D4E6FF
:1000E400C0FE04C08C2F0E94D50003C08C2F0E9438
:1000F400EB008FE99FE00197F1F700C000009FEF4C
:10010400C91AD90AE90AF90AC701B601A501940175
:100114000E94BE00672B682B692B11F781E08C0FBE
:10012400819FC12D1124C295CF70CD9F80191124B8
:04013400C82FD6CF2B
:10013800A1E21A2EAA1BBB1BFD010DC0AA1FBB1FE3
:10014800EE1FFF1FA217B307E407F50720F0A21B55
:10015800B30BE40BF50B661F771F881F991F1A94C2
:1001680069F760957095809590959B01AC01BD01EC
:04017800CF01089516
:10017C00052E97FB1EF400940E940D0157FD07D02D
:10018C000E949C0007FC03D04EF40C940D0150957A
:0E019C004095309521953F4F4F4F5F4F08958E
:1001AA002998289A9DEC899F912D112496959695C8
:1001BA009695990F292F220F220F920F891BE82F4C
:0C01CA00F0E0E050FF4F80818BB90895F9
:1001D600299A2898EDEC8E9FE12D1124E695E69557
:0E01E600E695F0E0E050FF4F80818BB9089560
:1001F400EC010E941A010E941901CE010E941B0108
:06020400CE010E9417016B
:10020A008FEF8AB91BB8209A219A289829980895BD
:10021A0090958095709561957F4F8F4F9F4F089568
:04022A000C94000030
:04022E000E946000CA
:0202320008952D
:0202340008952B
:02023600089529
:100238003F065B4F666D7D077F6F777C395E79710E
:00000001FF
