:100000000C9438000C949C000C949C000C949C0064
:100010000C949C000C949C000C949C000C949C00F0
:100020000C949C000C949C000C949C000C949C00E0
:100030000C949C000C949C000C949C000C949C00D0
:100040000C949C000C949C000C949C000C949C00C0
:100050000C949C000C949C000C949C000C949C00B0
:100060000C949C000C949C000100011000014600BF
:1000700011241FBECFEFD8E0DEBFCDBFE8E6F0E031
:1000800040E017C0B591A59135912591059107FDE7
:100090000CC095918591EF01F92FE82F05900D92F5
:1000A000A217B307D9F7FE0104C01D92A217B30728
:1000B000E1F7EF36F40731F70E9462000C948900F3
:0400C000F894FFCFE2
:1000C4000E94940082E085B9809100018BB92FEFE2
:1000D40039E648E1215030404040E1F700C00000DB
:1000E40081E022E025B9E82FF0E0E050FF4F908155
:1000F4009BB99FEF39E648E1915030404040E1F729
:0E01040000C000008F5F803168F380E0EBCF19
:10011200EC010E94A1000E94A000CE010E94A20058
:06012200CE010E949E00C8
:100128008FEF8AB91BB8209A219A289829980895A0
:040138000C94000023
:04013C000E946000BD
:02014000089520
:0201420008951E
:0201440008951C
:100146003F065B4F666D7D077F6F777C395E797101
:00000001FF
